{
  "transactions": [
    {
      "hash": "0x77acb79dda1499e2dc5060f7238b1ff19cc22fe5a6131848682f3c5fae2028ac",
      "transactionType": "CALL",
      "contractName": null,
      "contractAddress": "0x779877a7b0d9e8603169ddbd7836e478b4624789",
      "function": "transferAndCall(address,uint256,bytes)",
      "arguments": [
        "0x9DdfaCa8183c41ad55329BdeeD9F6A8d53168B1B",
        "3000000000000000000",
        "0x7de786a41f8a822e7b104844777331fcdab5480449bb6b4a9ddb7300def1ce85"
      ],
      "transaction": {
        "from": "0x92b7c57f0e82a5f337a0e2e26465f8bc20f6c895",
        "to": "0x779877a7b0d9e8603169ddbd7836e478b4624789",
        "gas": "0x1603d",
        "value": "0x0",
        "input": "0x4000aea00000000000000000000000009ddfaca8183c41ad55329bdeed9f6a8d53168b1b00000000000000000000000000000000000000000000000029a2241af62c0000000000000000000000000000000000000000000000000000000000000000006000000000000000000000000000000000000000000000000000000000000000207de786a41f8a822e7b104844777331fcdab5480449bb6b4a9ddb7300def1ce85",
        "nonce": "0x167",
        "chainId": "0xaa36a7"
      },
      "additionalContracts": [],
      "isFixedGasLimit": false
    }
  ],
  "receipts": [
    {
      "status": "0x1",
      "cumulativeGasUsed": "0xf88cb6",
      "logs": [
        {
          "address": "0x779877a7b0d9e8603169ddbd7836e478b4624789",
          "topics": [
            "0xddf252ad1be2c89b69c2b068fc378daa952ba7f163c4a11628f55a4df523b3ef",
            "0x00000000000000000000000092b7c57f0e82a5f337a0e2e26465f8bc20f6c895",
            "0x0000000000000000000000009ddfaca8183c41ad55329bdeed9f6a8d53168b1b"
          ],
          "data": "0x00000000000000000000000000000000000000000000000029a2241af62c0000",
          "blockHash": "0x4ab6bcd30e92e20334f40f943e214b4ca2fdc882e28b4254dd06a705fcd31d1b",
          "blockNumber": "0x5f9183",
          "transactionHash": "0x77acb79dda1499e2dc5060f7238b1ff19cc22fe5a6131848682f3c5fae2028ac",
          "transactionIndex": "0x4a",
          "logIndex": "0xd9",
          "removed": false
        },
        {
          "address": "0x779877a7b0d9e8603169ddbd7836e478b4624789",
          "topics": [
            "0xe19260aff97b920c7df27010903aeb9c8d2be5d310a2c67824cf3f15396e4c16",
            "0x00000000000000000000000092b7c57f0e82a5f337a0e2e26465f8bc20f6c895",
            "0x0000000000000000000000009ddfaca8183c41ad55329bdeed9f6a8d53168b1b"
          ],
          "data": "0x00000000000000000000000000000000000000000000000029a2241af62c0000000000000000000000000000000000000000000000000000000000000000004000000000000000000000000000000000000000000000000000000000000000207de786a41f8a822e7b104844777331fcdab5480449bb6b4a9ddb7300def1ce85",
          "blockHash": "0x4ab6bcd30e92e20334f40f943e214b4ca2fdc882e28b4254dd06a705fcd31d1b",
          "blockNumber": "0x5f9183",
          "transactionHash": "0x77acb79dda1499e2dc5060f7238b1ff19cc22fe5a6131848682f3c5fae2028ac",
          "transactionIndex": "0x4a",
          "logIndex": "0xda",
          "removed": false
        },
        {
          "address": "0x9ddfaca8183c41ad55329bdeed9f6a8d53168b1b",
          "topics": [
            "0x1ced9348ff549fceab2ac57cd3a9de38edaaab274b725ee82c23e8fc8c4eec7a",
            "0x7de786a41f8a822e7b104844777331fcdab5480449bb6b4a9ddb7300def1ce85"
          ],
          "data": "0x0000000000000000000000000000000000000000000000001bc16d674ec800000000000000000000000000000000000000000000000000004563918244f40000",
          "blockHash": "0x4ab6bcd30e92e20334f40f943e214b4ca2fdc882e28b4254dd06a705fcd31d1b",
          "blockNumber": "0x5f9183",
          "transactionHash": "0x77acb79dda1499e2dc5060f7238b1ff19cc22fe5a6131848682f3c5fae2028ac",
          "transactionIndex": "0x4a",
          "logIndex": "0xdb",
          "removed": false
        }
      ],
      "logsBloom": "0x0000000400000000000000000000000000000000002000000000000002000000000000000000000000000000000000000000000000000000000000000000000000000000000000000000000800000000000000000000000000002000002000010800000000000000000000000000000000000001000000000000001000004000000000000000000008000001000080000000002000000000000000000000000000000000000000000000000001000000000000000000000000000400000000000000000a000002000000000000000000000000000000000100000000000002000010000000000000800000000000000000000000000000000000000000000000",
      "type": "0x2",
      "transactionHash": "0x77acb79dda1499e2dc5060f7238b1ff19cc22fe5a6131848682f3c5fae2028ac",
      "transactionIndex": "0x4a",
      "blockHash": "0x4ab6bcd30e92e20334f40f943e214b4ca2fdc882e28b4254dd06a705fcd31d1b",
      "blockNumber": "0x5f9183",
      "gasUsed": "0xf0d9",
      "effectiveGasPrice": "0xc957c78f",
      "from": "0x92b7c57f0e82a5f337a0e2e26465f8bc20f6c895",
      "to": "0x779877a7b0d9e8603169ddbd7836e478b4624789",
      "contractAddress": null
    }
  ],
  "libraries": [],
  "pending": [],
  "returns": {},
  "timestamp": 1720348804,
  "chain": 11155111,
  "commit": "f0079ec"
}